{
    "_format": "hh-sol-artifact-1",
    "contractName": "WavePortal",
    "sourceName": "contracts/WavePortal.sol",
    "abi": [
        {
            "inputs": [],
            "stateMutability": "payable",
            "type": "constructor"
        },
        {
            "anonymous": false,
            "inputs": [
                {
                    "indexed": true,
                    "internalType": "address",
                    "name": "from",
                    "type": "address"
                },
                {
                    "indexed": false,
                    "internalType": "uint256",
                    "name": "timestamp",
                    "type": "uint256"
                },
                {
                    "indexed": false,
                    "internalType": "string",
                    "name": "message",
                    "type": "string"
                }
            ],
            "name": "NewWave",
            "type": "event"
        },
        {
            "inputs": [],
            "name": "getAllWaves",
            "outputs": [
                {
                    "components": [
                        {
                            "internalType": "address",
                            "name": "waver",
                            "type": "address"
                        },
                        {
                            "internalType": "string",
                            "name": "message",
                            "type": "string"
                        },
                        {
                            "internalType": "uint256",
                            "name": "timestamp",
                            "type": "uint256"
                        }
                    ],
                    "internalType": "struct WavePortal.Wave[]",
                    "name": "",
                    "type": "tuple[]"
                }
            ],
            "stateMutability": "view",
            "type": "function"
        },
        {
            "inputs": [
                {
                    "internalType": "address",
                    "name": "",
                    "type": "address"
                }
            ],
            "name": "lastWavedAt",
            "outputs": [
                {
                    "internalType": "uint256",
                    "name": "",
                    "type": "uint256"
                }
            ],
            "stateMutability": "view",
            "type": "function"
        },
        {
            "inputs": [
                {
                    "internalType": "string",
                    "name": "_message",
                    "type": "string"
                }
            ],
            "name": "wave",
            "outputs": [],
            "stateMutability": "nonpayable",
            "type": "function"
        }
    ],
    "bytecode": "0x60806040526200004f6040518060400160405280600381526020017f73757000000000000000000000000000000000000000000000000000000000008152506200007760201b620005941760201c565b606444426200005f9190620001c4565b6200006b919062000261565b60018190555062000308565b62000117816040516024016200008e919062000184565b6040516020818303038152906040527f41304fac000000000000000000000000000000000000000000000000000000007bffffffffffffffffffffffffffffffffffffffffffffffffffffffff19166020820180517bffffffffffffffffffffffffffffffffffffffffffffffffffffffff83818316178352505050506200011a60201b60201c565b50565b60008151905060006a636f6e736f6c652e6c6f679050602083016000808483855afa5050505050565b60006200015082620001a8565b6200015c8185620001b3565b93506200016e8185602086016200022b565b6200017981620002f7565b840191505092915050565b60006020820190508181036000830152620001a0818462000143565b905092915050565b600081519050919050565b600082825260208201905092915050565b6000620001d18262000221565b9150620001de8362000221565b9250827fffffffffffffffffffffffffffffffffffffffffffffffffffffffffffffffff0382111562000216576200021562000299565b5b828201905092915050565b6000819050919050565b60005b838110156200024b5780820151818401526020810190506200022e565b838111156200025b576000848401525b50505050565b60006200026e8262000221565b91506200027b8362000221565b9250826200028e576200028d620002c8565b5b828206905092915050565b7f4e487b7100000000000000000000000000000000000000000000000000000000600052601160045260246000fd5b7f4e487b7100000000000000000000000000000000000000000000000000000000600052601260045260246000fd5b6000601f19601f8301169050919050565b610fd680620003186000396000f3fe608060405234801561001057600080fd5b50600436106100415760003560e01c8063449d46c014610046578063a42a466314610062578063bd43a90814610092575b600080fd5b610060600480360381019061005b919061083b565b6100b0565b005b61007c60048036038101906100779190610812565b61042b565b6040516100899190610b78565b60405180910390f35b61009a610443565b6040516100a79190610aa4565b60405180910390f35b42610384600360003373ffffffffffffffffffffffffffffffffffffffff1673ffffffffffffffffffffffffffffffffffffffff168152602001908152602001600020546100fe9190610c8a565b1061013e576040517f08c379a000000000000000000000000000000000000000000000000000000000815260040161013590610b58565b60405180910390fd5b42600360003373ffffffffffffffffffffffffffffffffffffffff1673ffffffffffffffffffffffffffffffffffffffff1681526020019081526020016000208190555060016000808282546101949190610c8a565b925050819055506101da6040518060400160405280600d81526020017f25732068617320776176656421000000000000000000000000000000000000008152503361062d565b600260405180606001604052803373ffffffffffffffffffffffffffffffffffffffff16815260200183815260200142815250908060018154018082558091505060019003906000526020600020906003020160009091909190915060008201518160000160006101000a81548173ffffffffffffffffffffffffffffffffffffffff021916908373ffffffffffffffffffffffffffffffffffffffff16021790555060208201518160010190805190602001906102999291906106f2565b50604082015181600201555050606460015442446102b79190610c8a565b6102c19190610c8a565b6102cb9190610dc1565b6001819055506032600154116103d8576000655af3107a4000905047811115610329576040517f08c379a000000000000000000000000000000000000000000000000000000000815260040161032090610b18565b60405180910390fd5b60003373ffffffffffffffffffffffffffffffffffffffff168260405161034f90610a8f565b60006040518083038185875af1925050503d806000811461038c576040519150601f19603f3d011682016040523d82523d6000602084013e610391565b606091505b50509050806103d5576040517f08c379a00000000000000000000000000000000000000000000000000000000081526004016103cc90610b38565b60405180910390fd5b50505b3373ffffffffffffffffffffffffffffffffffffffff167f5f7e16dc676677766a70e9c5628aa6c54ddb8b6e5188e2ae1e1f17f1ffbea7164283604051610420929190610b93565b60405180910390a250565b60036020528060005260406000206000915090505481565b60606002805480602002602001604051908101604052809291908181526020016000905b8282101561058b57838290600052602060002090600302016040518060600160405290816000820160009054906101000a900473ffffffffffffffffffffffffffffffffffffffff1673ffffffffffffffffffffffffffffffffffffffff1673ffffffffffffffffffffffffffffffffffffffff1681526020016001820180546104f090610d5e565b80601f016020809104026020016040519081016040528092919081815260200182805461051c90610d5e565b80156105695780601f1061053e57610100808354040283529160200191610569565b820191906000526020600020905b81548152906001019060200180831161054c57829003601f168201915b5050505050815260200160028201548152505081526020019060010190610467565b50505050905090565b61062a816040516024016105a89190610ac6565b6040516020818303038152906040527f41304fac000000000000000000000000000000000000000000000000000000007bffffffffffffffffffffffffffffffffffffffffffffffffffffffff19166020820180517bffffffffffffffffffffffffffffffffffffffffffffffffffffffff83818316178352505050506106c9565b50565b6106c58282604051602401610643929190610ae8565b6040516020818303038152906040527f319af333000000000000000000000000000000000000000000000000000000007bffffffffffffffffffffffffffffffffffffffffffffffffffffffff19166020820180517bffffffffffffffffffffffffffffffffffffffffffffffffffffffff83818316178352505050506106c9565b5050565b60008151905060006a636f6e736f6c652e6c6f679050602083016000808483855afa5050505050565b8280546106fe90610d5e565b90600052602060002090601f0160209004810192826107205760008555610767565b82601f1061073957805160ff1916838001178555610767565b82800160010185558215610767579182015b8281111561076657825182559160200191906001019061074b565b5b5090506107749190610778565b5090565b5b80821115610791576000816000905550600101610779565b5090565b60006107a86107a384610be8565b610bc3565b9050828152602081018484840111156107c057600080fd5b6107cb848285610d1c565b509392505050565b6000813590506107e281610f89565b92915050565b600082601f8301126107f957600080fd5b8135610809848260208601610795565b91505092915050565b60006020828403121561082457600080fd5b6000610832848285016107d3565b91505092915050565b60006020828403121561084d57600080fd5b600082013567ffffffffffffffff81111561086757600080fd5b610873848285016107e8565b91505092915050565b60006108888383610a21565b905092915050565b61089981610ce0565b82525050565b6108a881610ce0565b82525050565b60006108b982610c29565b6108c38185610c4c565b9350836020820285016108d585610c19565b8060005b8581101561091157848403895281516108f2858261087c565b94506108fd83610c3f565b925060208a019950506001810190506108d9565b50829750879550505050505092915050565b600061092e82610c34565b6109388185610c68565b9350610948818560208601610d2b565b61095181610eae565b840191505092915050565b600061096782610c34565b6109718185610c79565b9350610981818560208601610d2b565b61098a81610eae565b840191505092915050565b60006109a2603483610c79565b91506109ad82610ebf565b604082019050919050565b60006109c5602783610c79565b91506109d082610f0e565b604082019050919050565b60006109e8600083610c5d565b91506109f382610f5d565b600082019050919050565b6000610a0b600883610c79565b9150610a1682610f60565b602082019050919050565b6000606083016000830151610a396000860182610890565b5060208301518482036020860152610a518282610923565b9150506040830151610a666040860182610a71565b508091505092915050565b610a7a81610d12565b82525050565b610a8981610d12565b82525050565b6000610a9a826109db565b9150819050919050565b60006020820190508181036000830152610abe81846108ae565b905092915050565b60006020820190508181036000830152610ae0818461095c565b905092915050565b60006040820190508181036000830152610b02818561095c565b9050610b11602083018461089f565b9392505050565b60006020820190508181036000830152610b3181610995565b9050919050565b60006020820190508181036000830152610b51816109b8565b9050919050565b60006020820190508181036000830152610b71816109fe565b9050919050565b6000602082019050610b8d6000830184610a80565b92915050565b6000604082019050610ba86000830185610a80565b8181036020830152610bba818461095c565b90509392505050565b6000610bcd610bde565b9050610bd98282610d90565b919050565b6000604051905090565b600067ffffffffffffffff821115610c0357610c02610e7f565b5b610c0c82610eae565b9050602081019050919050565b6000819050602082019050919050565b600081519050919050565b600081519050919050565b6000602082019050919050565b600082825260208201905092915050565b600081905092915050565b600082825260208201905092915050565b600082825260208201905092915050565b6000610c9582610d12565b9150610ca083610d12565b9250827fffffffffffffffffffffffffffffffffffffffffffffffffffffffffffffffff03821115610cd557610cd4610df2565b5b828201905092915050565b6000610ceb82610cf2565b9050919050565b600073ffffffffffffffffffffffffffffffffffffffff82169050919050565b6000819050919050565b82818337600083830152505050565b60005b83811015610d49578082015181840152602081019050610d2e565b83811115610d58576000848401525b50505050565b60006002820490506001821680610d7657607f821691505b60208210811415610d8a57610d89610e50565b5b50919050565b610d9982610eae565b810181811067ffffffffffffffff82111715610db857610db7610e7f565b5b80604052505050565b6000610dcc82610d12565b9150610dd783610d12565b925082610de757610de6610e21565b5b828206905092915050565b7f4e487b7100000000000000000000000000000000000000000000000000000000600052601160045260246000fd5b7f4e487b7100000000000000000000000000000000000000000000000000000000600052601260045260246000fd5b7f4e487b7100000000000000000000000000000000000000000000000000000000600052602260045260246000fd5b7f4e487b7100000000000000000000000000000000000000000000000000000000600052604160045260246000fd5b6000601f19601f8301169050919050565b7f547279696e6720746f207769746864726177206d6f7265206d6f6e657920746860008201527f616e2074686520636f6e7472616374206861732e000000000000000000000000602082015250565b7f4661696c656420746f207769746864726177206d6f6e65792066726f6d20636f60008201527f6e74726163742e00000000000000000000000000000000000000000000000000602082015250565b50565b7f576169742031356d000000000000000000000000000000000000000000000000600082015250565b610f9281610ce0565b8114610f9d57600080fd5b5056fea26469706673582212200d8dc3564a294601ca3cd224b0d939993c1606da6b44627bccc9470e99f4224f64736f6c63430008040033",
    "linkReferences": {},
    "deployedLinkReferences": {}
}