{
  "_format": "hh-sol-artifact-1",
  "contractName": "WavePortal",
  "sourceName": "contracts/WavePortal.sol",
  "abi": [
    {
      "inputs": [],
      "stateMutability": "nonpayable",
      "type": "constructor"
    },
    {
      "inputs": [],
      "name": "getTotalWaves",
      "outputs": [
        {
          "internalType": "uint256",
          "name": "",
          "type": "uint256"
        }
      ],
      "stateMutability": "view",
      "type": "function"
    },
    {
      "inputs": [],
      "name": "wave",
      "outputs": [],
      "stateMutability": "nonpayable",
      "type": "function"
    },
    {
      "inputs": [
        {
          "internalType": "uint256",
          "name": "",
          "type": "uint256"
        }
      ],
      "name": "waves",
      "outputs": [
        {
          "internalType": "address",
          "name": "sender",
          "type": "address"
        },
        {
          "internalType": "uint256",
          "name": "waveCount",
          "type": "uint256"
        }
      ],
      "stateMutability": "view",
      "type": "function"
    }
  ],
  "bytecode": "0x608060405234801561001057600080fd5b506100596040518060400160405280600381526020017f737570000000000000000000000000000000000000000000000000000000000081525061005e60201b61035a1760201c565b6101e1565b6100fa81604051602401610072919061015f565b6040516020818303038152906040527f41304fac000000000000000000000000000000000000000000000000000000007bffffffffffffffffffffffffffffffffffffffffffffffffffffffff19166020820180517bffffffffffffffffffffffffffffffffffffffffffffffffffffffff83818316178352505050506100fd60201b60201c565b50565b60008151905060006a636f6e736f6c652e6c6f679050602083016000808483855afa5050505050565b600061013182610181565b61013b818561018c565b935061014b81856020860161019d565b610154816101d0565b840191505092915050565b600060208201905081810360008301526101798184610126565b905092915050565b600081519050919050565b600082825260208201905092915050565b60005b838110156101bb5780820151818401526020810190506101a0565b838111156101ca576000848401525b50505050565b6000601f19601f8301169050919050565b610943806101f06000396000f3fe608060405234801561001057600080fd5b50600436106100415760003560e01c80636fe15b44146100465780639a2cdc0814610050578063c781267a1461006e575b600080fd5b61004e61009f565b005b6100586102bb565b6040516100659190610771565b60405180910390f35b61008860048036038101906100839190610608565b610306565b604051610096929190610688565b60405180910390f35b60016000808282546100b191906107a8565b925050819055506100f76040518060400160405280600d81526020017f2573206861732077617665642100000000000000000000000000000000000000815250336103f3565b600260405180604001604052803373ffffffffffffffffffffffffffffffffffffffff168152602001600054815250908060018154018082558091505060019003906000526020600020906002020160009091909190915060008201518160000160006101000a81548173ffffffffffffffffffffffffffffffffffffffff021916908373ffffffffffffffffffffffffffffffffffffffff16021790555060208201518160010155505060005b6000548110156102b8576102a56040518060400160405280601c81526020017f5761766520696e666f20616464723a20257320636f756e743a2025640000000081525060028381548110610222577f4e487b7100000000000000000000000000000000000000000000000000000000600052603260045260246000fd5b906000526020600020906002020160000160009054906101000a900473ffffffffffffffffffffffffffffffffffffffff166002848154811061028e577f4e487b7100000000000000000000000000000000000000000000000000000000600052603260045260246000fd5b90600052602060002090600202016001015461048f565b80806102b09061086d565b9150506101a5565b50565b60006102fe6040518060400160405280601781526020017f5765206861766520256420746f74616c2077617665732100000000000000000081525060005461052e565b600054905090565b6002818154811061031657600080fd5b90600052602060002090600202016000915090508060000160009054906101000a900473ffffffffffffffffffffffffffffffffffffffff16908060010154905082565b6103f08160405160240161036e91906106b1565b6040516020818303038152906040527f41304fac000000000000000000000000000000000000000000000000000000007bffffffffffffffffffffffffffffffffffffffffffffffffffffffff19166020820180517bffffffffffffffffffffffffffffffffffffffffffffffffffffffff83818316178352505050506105ca565b50565b61048b82826040516024016104099291906106d3565b6040516020818303038152906040527f319af333000000000000000000000000000000000000000000000000000000007bffffffffffffffffffffffffffffffffffffffffffffffffffffffff19166020820180517bffffffffffffffffffffffffffffffffffffffffffffffffffffffff83818316178352505050506105ca565b5050565b6105298383836040516024016104a793929190610703565b6040516020818303038152906040527f07c81217000000000000000000000000000000000000000000000000000000007bffffffffffffffffffffffffffffffffffffffffffffffffffffffff19166020820180517bffffffffffffffffffffffffffffffffffffffffffffffffffffffff83818316178352505050506105ca565b505050565b6105c68282604051602401610544929190610741565b6040516020818303038152906040527f9710a9d0000000000000000000000000000000000000000000000000000000007bffffffffffffffffffffffffffffffffffffffffffffffffffffffff19166020820180517bffffffffffffffffffffffffffffffffffffffffffffffffffffffff83818316178352505050506105ca565b5050565b60008151905060006a636f6e736f6c652e6c6f679050602083016000808483855afa5050505050565b600081359050610602816108f6565b92915050565b60006020828403121561061a57600080fd5b6000610628848285016105f3565b91505092915050565b61063a816107fe565b82525050565b600061064b8261078c565b6106558185610797565b935061066581856020860161083a565b61066e816108e5565b840191505092915050565b61068281610830565b82525050565b600060408201905061069d6000830185610631565b6106aa6020830184610679565b9392505050565b600060208201905081810360008301526106cb8184610640565b905092915050565b600060408201905081810360008301526106ed8185610640565b90506106fc6020830184610631565b9392505050565b6000606082019050818103600083015261071d8186610640565b905061072c6020830185610631565b6107396040830184610679565b949350505050565b6000604082019050818103600083015261075b8185610640565b905061076a6020830184610679565b9392505050565b60006020820190506107866000830184610679565b92915050565b600081519050919050565b600082825260208201905092915050565b60006107b382610830565b91506107be83610830565b9250827fffffffffffffffffffffffffffffffffffffffffffffffffffffffffffffffff038211156107f3576107f26108b6565b5b828201905092915050565b600061080982610810565b9050919050565b600073ffffffffffffffffffffffffffffffffffffffff82169050919050565b6000819050919050565b60005b8381101561085857808201518184015260208101905061083d565b83811115610867576000848401525b50505050565b600061087882610830565b91507fffffffffffffffffffffffffffffffffffffffffffffffffffffffffffffffff8214156108ab576108aa6108b6565b5b600182019050919050565b7f4e487b7100000000000000000000000000000000000000000000000000000000600052601160045260246000fd5b6000601f19601f8301169050919050565b6108ff81610830565b811461090a57600080fd5b5056fea26469706673582212205f3d4549debfdf96f0a5ed0bf451d14001f456eac71080cdd3314269e93115fc64736f6c63430008040033",
  "linkReferences": {},
  "deployedLinkReferences": {}
}