{
    "_format": "hh-sol-artifact-1",
    "contractName": "WavePortal",
    "sourceName": "contracts/WavePortal.sol",
    "abi": [
        {
            "inputs": [],
            "stateMutability": "payable",
            "type": "constructor"
        },
        {
            "anonymous": false,
            "inputs": [
                {
                    "indexed": true,
                    "internalType": "address",
                    "name": "from",
                    "type": "address"
                },
                {
                    "indexed": false,
                    "internalType": "uint256",
                    "name": "timestamp",
                    "type": "uint256"
                },
                {
                    "indexed": false,
                    "internalType": "string",
                    "name": "message",
                    "type": "string"
                }
            ],
            "name": "NewWave",
            "type": "event"
        },
        {
            "inputs": [],
            "name": "getAllWaves",
            "outputs": [
                {
                    "components": [
                        {
                            "internalType": "address",
                            "name": "waver",
                            "type": "address"
                        },
                        {
                            "internalType": "string",
                            "name": "message",
                            "type": "string"
                        },
                        {
                            "internalType": "uint256",
                            "name": "timestamp",
                            "type": "uint256"
                        }
                    ],
                    "internalType": "struct WavePortal.Wave[]",
                    "name": "",
                    "type": "tuple[]"
                }
            ],
            "stateMutability": "view",
            "type": "function"
        },
        {
            "inputs": [
                {
                    "internalType": "address",
                    "name": "",
                    "type": "address"
                }
            ],
            "name": "lastWavedAt",
            "outputs": [
                {
                    "internalType": "uint256",
                    "name": "",
                    "type": "uint256"
                }
            ],
            "stateMutability": "view",
            "type": "function"
        },
        {
            "inputs": [
                {
                    "internalType": "string",
                    "name": "_message",
                    "type": "string"
                }
            ],
            "name": "wave",
            "outputs": [],
            "stateMutability": "nonpayable",
            "type": "function"
        }
    ],
    "bytecode": "0x60806040526200004f6040518060400160405280600381526020017f73757000000000000000000000000000000000000000000000000000000000008152506200007760201b620005931760201c565b606444426200005f9190620001c4565b6200006b919062000261565b60018190555062000308565b62000117816040516024016200008e919062000184565b6040516020818303038152906040527f41304fac000000000000000000000000000000000000000000000000000000007bffffffffffffffffffffffffffffffffffffffffffffffffffffffff19166020820180517bffffffffffffffffffffffffffffffffffffffffffffffffffffffff83818316178352505050506200011a60201b60201c565b50565b60008151905060006a636f6e736f6c652e6c6f679050602083016000808483855afa5050505050565b60006200015082620001a8565b6200015c8185620001b3565b93506200016e8185602086016200022b565b6200017981620002f7565b840191505092915050565b60006020820190508181036000830152620001a0818462000143565b905092915050565b600081519050919050565b600082825260208201905092915050565b6000620001d18262000221565b9150620001de8362000221565b9250827fffffffffffffffffffffffffffffffffffffffffffffffffffffffffffffffff0382111562000216576200021562000299565b5b828201905092915050565b6000819050919050565b60005b838110156200024b5780820151818401526020810190506200022e565b838111156200025b576000848401525b50505050565b60006200026e8262000221565b91506200027b8362000221565b9250826200028e576200028d620002c8565b5b828206905092915050565b7f4e487b7100000000000000000000000000000000000000000000000000000000600052601160045260246000fd5b7f4e487b7100000000000000000000000000000000000000000000000000000000600052601260045260246000fd5b6000601f19601f8301169050919050565b610fd580620003186000396000f3fe608060405234801561001057600080fd5b50600436106100415760003560e01c8063449d46c014610046578063a42a466314610062578063bd43a90814610092575b600080fd5b610060600480360381019061005b919061083a565b6100b0565b005b61007c60048036038101906100779190610811565b61042a565b6040516100899190610b77565b60405180910390f35b61009a610442565b6040516100a79190610aa3565b60405180910390f35b42601e600360003373ffffffffffffffffffffffffffffffffffffffff1673ffffffffffffffffffffffffffffffffffffffff168152602001908152602001600020546100fd9190610c89565b1061013d576040517f08c379a000000000000000000000000000000000000000000000000000000000815260040161013490610b57565b60405180910390fd5b42600360003373ffffffffffffffffffffffffffffffffffffffff1673ffffffffffffffffffffffffffffffffffffffff1681526020019081526020016000208190555060016000808282546101939190610c89565b925050819055506101d96040518060400160405280600d81526020017f25732068617320776176656421000000000000000000000000000000000000008152503361062c565b600260405180606001604052803373ffffffffffffffffffffffffffffffffffffffff16815260200183815260200142815250908060018154018082558091505060019003906000526020600020906003020160009091909190915060008201518160000160006101000a81548173ffffffffffffffffffffffffffffffffffffffff021916908373ffffffffffffffffffffffffffffffffffffffff16021790555060208201518160010190805190602001906102989291906106f1565b50604082015181600201555050606460015442446102b69190610c89565b6102c09190610c89565b6102ca9190610dc0565b6001819055506032600154116103d7576000655af3107a4000905047811115610328576040517f08c379a000000000000000000000000000000000000000000000000000000000815260040161031f90610b17565b60405180910390fd5b60003373ffffffffffffffffffffffffffffffffffffffff168260405161034e90610a8e565b60006040518083038185875af1925050503d806000811461038b576040519150601f19603f3d011682016040523d82523d6000602084013e610390565b606091505b50509050806103d4576040517f08c379a00000000000000000000000000000000000000000000000000000000081526004016103cb90610b37565b60405180910390fd5b50505b3373ffffffffffffffffffffffffffffffffffffffff167f5f7e16dc676677766a70e9c5628aa6c54ddb8b6e5188e2ae1e1f17f1ffbea716428360405161041f929190610b92565b60405180910390a250565b60036020528060005260406000206000915090505481565b60606002805480602002602001604051908101604052809291908181526020016000905b8282101561058a57838290600052602060002090600302016040518060600160405290816000820160009054906101000a900473ffffffffffffffffffffffffffffffffffffffff1673ffffffffffffffffffffffffffffffffffffffff1673ffffffffffffffffffffffffffffffffffffffff1681526020016001820180546104ef90610d5d565b80601f016020809104026020016040519081016040528092919081815260200182805461051b90610d5d565b80156105685780601f1061053d57610100808354040283529160200191610568565b820191906000526020600020905b81548152906001019060200180831161054b57829003601f168201915b5050505050815260200160028201548152505081526020019060010190610466565b50505050905090565b610629816040516024016105a79190610ac5565b6040516020818303038152906040527f41304fac000000000000000000000000000000000000000000000000000000007bffffffffffffffffffffffffffffffffffffffffffffffffffffffff19166020820180517bffffffffffffffffffffffffffffffffffffffffffffffffffffffff83818316178352505050506106c8565b50565b6106c48282604051602401610642929190610ae7565b6040516020818303038152906040527f319af333000000000000000000000000000000000000000000000000000000007bffffffffffffffffffffffffffffffffffffffffffffffffffffffff19166020820180517bffffffffffffffffffffffffffffffffffffffffffffffffffffffff83818316178352505050506106c8565b5050565b60008151905060006a636f6e736f6c652e6c6f679050602083016000808483855afa5050505050565b8280546106fd90610d5d565b90600052602060002090601f01602090048101928261071f5760008555610766565b82601f1061073857805160ff1916838001178555610766565b82800160010185558215610766579182015b8281111561076557825182559160200191906001019061074a565b5b5090506107739190610777565b5090565b5b80821115610790576000816000905550600101610778565b5090565b60006107a76107a284610be7565b610bc2565b9050828152602081018484840111156107bf57600080fd5b6107ca848285610d1b565b509392505050565b6000813590506107e181610f88565b92915050565b600082601f8301126107f857600080fd5b8135610808848260208601610794565b91505092915050565b60006020828403121561082357600080fd5b6000610831848285016107d2565b91505092915050565b60006020828403121561084c57600080fd5b600082013567ffffffffffffffff81111561086657600080fd5b610872848285016107e7565b91505092915050565b60006108878383610a20565b905092915050565b61089881610cdf565b82525050565b6108a781610cdf565b82525050565b60006108b882610c28565b6108c28185610c4b565b9350836020820285016108d485610c18565b8060005b8581101561091057848403895281516108f1858261087b565b94506108fc83610c3e565b925060208a019950506001810190506108d8565b50829750879550505050505092915050565b600061092d82610c33565b6109378185610c67565b9350610947818560208601610d2a565b61095081610ead565b840191505092915050565b600061096682610c33565b6109708185610c78565b9350610980818560208601610d2a565b61098981610ead565b840191505092915050565b60006109a1603483610c78565b91506109ac82610ebe565b604082019050919050565b60006109c4602783610c78565b91506109cf82610f0d565b604082019050919050565b60006109e7600083610c5c565b91506109f282610f5c565b600082019050919050565b6000610a0a601c83610c78565b9150610a1582610f5f565b602082019050919050565b6000606083016000830151610a38600086018261088f565b5060208301518482036020860152610a508282610922565b9150506040830151610a656040860182610a70565b508091505092915050565b610a7981610d11565b82525050565b610a8881610d11565b82525050565b6000610a99826109da565b9150819050919050565b60006020820190508181036000830152610abd81846108ad565b905092915050565b60006020820190508181036000830152610adf818461095b565b905092915050565b60006040820190508181036000830152610b01818561095b565b9050610b10602083018461089e565b9392505050565b60006020820190508181036000830152610b3081610994565b9050919050565b60006020820190508181036000830152610b50816109b7565b9050919050565b60006020820190508181036000830152610b70816109fd565b9050919050565b6000602082019050610b8c6000830184610a7f565b92915050565b6000604082019050610ba76000830185610a7f565b8181036020830152610bb9818461095b565b90509392505050565b6000610bcc610bdd565b9050610bd88282610d8f565b919050565b6000604051905090565b600067ffffffffffffffff821115610c0257610c01610e7e565b5b610c0b82610ead565b9050602081019050919050565b6000819050602082019050919050565b600081519050919050565b600081519050919050565b6000602082019050919050565b600082825260208201905092915050565b600081905092915050565b600082825260208201905092915050565b600082825260208201905092915050565b6000610c9482610d11565b9150610c9f83610d11565b9250827fffffffffffffffffffffffffffffffffffffffffffffffffffffffffffffffff03821115610cd457610cd3610df1565b5b828201905092915050565b6000610cea82610cf1565b9050919050565b600073ffffffffffffffffffffffffffffffffffffffff82169050919050565b6000819050919050565b82818337600083830152505050565b60005b83811015610d48578082015181840152602081019050610d2d565b83811115610d57576000848401525b50505050565b60006002820490506001821680610d7557607f821691505b60208210811415610d8957610d88610e4f565b5b50919050565b610d9882610ead565b810181811067ffffffffffffffff82111715610db757610db6610e7e565b5b80604052505050565b6000610dcb82610d11565b9150610dd683610d11565b925082610de657610de5610e20565b5b828206905092915050565b7f4e487b7100000000000000000000000000000000000000000000000000000000600052601160045260246000fd5b7f4e487b7100000000000000000000000000000000000000000000000000000000600052601260045260246000fd5b7f4e487b7100000000000000000000000000000000000000000000000000000000600052602260045260246000fd5b7f4e487b7100000000000000000000000000000000000000000000000000000000600052604160045260246000fd5b6000601f19601f8301169050919050565b7f547279696e6720746f207769746864726177206d6f7265206d6f6e657920746860008201527f616e2074686520636f6e7472616374206861732e000000000000000000000000602082015250565b7f4661696c656420746f207769746864726177206d6f6e65792066726f6d20636f60008201527f6e74726163742e00000000000000000000000000000000000000000000000000602082015250565b50565b7f5761697420333073206265666f726520776176696e6720616761696e00000000600082015250565b610f9181610cdf565b8114610f9c57600080fd5b5056fea264697066735822122087e03d92aab9c48f9c62f065c95f60639f8c9f292b6aa54d8da50f9478c0b2ac64736f6c63430008040033",
    "linkReferences": {},
    "deployedLinkReferences": {}
}