{
    "_format": "hh-sol-artifact-1",
    "contractName": "WavePortal",
    "sourceName": "contracts/WavePortal.sol",
    "abi": [
        {
            "inputs": [],
            "stateMutability": "payable",
            "type": "constructor"
        },
        {
            "anonymous": false,
            "inputs": [
                {
                    "indexed": true,
                    "internalType": "address",
                    "name": "from",
                    "type": "address"
                },
                {
                    "indexed": false,
                    "internalType": "uint256",
                    "name": "timestamp",
                    "type": "uint256"
                },
                {
                    "indexed": false,
                    "internalType": "string",
                    "name": "message",
                    "type": "string"
                }
            ],
            "name": "NewWave",
            "type": "event"
        },
        {
            "inputs": [],
            "name": "getAllWaves",
            "outputs": [
                {
                    "components": [
                        {
                            "internalType": "address",
                            "name": "waver",
                            "type": "address"
                        },
                        {
                            "internalType": "string",
                            "name": "message",
                            "type": "string"
                        },
                        {
                            "internalType": "uint256",
                            "name": "timestamp",
                            "type": "uint256"
                        }
                    ],
                    "internalType": "struct WavePortal.Wave[]",
                    "name": "",
                    "type": "tuple[]"
                }
            ],
            "stateMutability": "view",
            "type": "function"
        },
        {
            "inputs": [
                {
                    "internalType": "string",
                    "name": "_message",
                    "type": "string"
                }
            ],
            "name": "wave",
            "outputs": [],
            "stateMutability": "nonpayable",
            "type": "function"
        }
    ],
    "bytecode": "0x60806040526200004f6040518060400160405280600381526020017f73757000000000000000000000000000000000000000000000000000000000008152506200005560201b620004391760201c565b620001e9565b620000f5816040516024016200006c919062000162565b6040516020818303038152906040527f41304fac000000000000000000000000000000000000000000000000000000007bffffffffffffffffffffffffffffffffffffffffffffffffffffffff19166020820180517bffffffffffffffffffffffffffffffffffffffffffffffffffffffff8381831617835250505050620000f860201b60201c565b50565b60008151905060006a636f6e736f6c652e6c6f679050602083016000808483855afa5050505050565b60006200012e8262000186565b6200013a818562000191565b93506200014c818560208601620001a2565b6200015781620001d8565b840191505092915050565b600060208201905081810360008301526200017e818462000121565b905092915050565b600081519050919050565b600082825260208201905092915050565b60005b83811015620001c2578082015181840152602081019050620001a5565b83811115620001d2576000848401525b50505050565b6000601f19601f8301169050919050565b610d3f80620001f96000396000f3fe608060405234801561001057600080fd5b50600436106100365760003560e01c8063449d46c01461003b578063bd43a90814610057575b600080fd5b610055600480360381019061005091906106a2565b610075565b005b61005f6102e8565b60405161006c91906108e8565b60405180910390f35b60016000808282546100879190610a93565b925050819055506100cd6040518060400160405280600d81526020017f2573206861732077617665642100000000000000000000000000000000000000815250336104d2565b600160405180606001604052803373ffffffffffffffffffffffffffffffffffffffff16815260200183815260200142815250908060018154018082558091505060019003906000526020600020906003020160009091909190915060008201518160000160006101000a81548173ffffffffffffffffffffffffffffffffffffffff021916908373ffffffffffffffffffffffffffffffffffffffff160217905550602082015181600101908051906020019061018c929190610597565b506040820151816002015550503373ffffffffffffffffffffffffffffffffffffffff167f5f7e16dc676677766a70e9c5628aa6c54ddb8b6e5188e2ae1e1f17f1ffbea71642836040516101e192919061099c565b60405180910390a26000655af3107a4000905047811115610237576040517f08c379a000000000000000000000000000000000000000000000000000000000815260040161022e9061095c565b60405180910390fd5b60003373ffffffffffffffffffffffffffffffffffffffff168260405161025d906108d3565b60006040518083038185875af1925050503d806000811461029a576040519150601f19603f3d011682016040523d82523d6000602084013e61029f565b606091505b50509050806102e3576040517f08c379a00000000000000000000000000000000000000000000000000000000081526004016102da9061097c565b60405180910390fd5b505050565b60606001805480602002602001604051908101604052809291908181526020016000905b8282101561043057838290600052602060002090600302016040518060600160405290816000820160009054906101000a900473ffffffffffffffffffffffffffffffffffffffff1673ffffffffffffffffffffffffffffffffffffffff1673ffffffffffffffffffffffffffffffffffffffff16815260200160018201805461039590610b67565b80601f01602080910402602001604051908101604052809291908181526020018280546103c190610b67565b801561040e5780601f106103e35761010080835404028352916020019161040e565b820191906000526020600020905b8154815290600101906020018083116103f157829003601f168201915b505050505081526020016002820154815250508152602001906001019061030c565b50505050905090565b6104cf8160405160240161044d919061090a565b6040516020818303038152906040527f41304fac000000000000000000000000000000000000000000000000000000007bffffffffffffffffffffffffffffffffffffffffffffffffffffffff19166020820180517bffffffffffffffffffffffffffffffffffffffffffffffffffffffff838183161783525050505061056e565b50565b61056a82826040516024016104e892919061092c565b6040516020818303038152906040527f319af333000000000000000000000000000000000000000000000000000000007bffffffffffffffffffffffffffffffffffffffffffffffffffffffff19166020820180517bffffffffffffffffffffffffffffffffffffffffffffffffffffffff838183161783525050505061056e565b5050565b60008151905060006a636f6e736f6c652e6c6f679050602083016000808483855afa5050505050565b8280546105a390610b67565b90600052602060002090601f0160209004810192826105c5576000855561060c565b82601f106105de57805160ff191683800117855561060c565b8280016001018555821561060c579182015b8281111561060b5782518255916020019190600101906105f0565b5b509050610619919061061d565b5090565b5b8082111561063657600081600090555060010161061e565b5090565b600061064d610648846109f1565b6109cc565b90508281526020810184848401111561066557600080fd5b610670848285610b25565b509392505050565b600082601f83011261068957600080fd5b813561069984826020860161063a565b91505092915050565b6000602082840312156106b457600080fd5b600082013567ffffffffffffffff8111156106ce57600080fd5b6106da84828501610678565b91505092915050565b60006106ef8383610865565b905092915050565b61070081610ae9565b82525050565b61070f81610ae9565b82525050565b600061072082610a32565b61072a8185610a55565b93508360208202850161073c85610a22565b8060005b85811015610778578484038952815161075985826106e3565b945061076483610a48565b925060208a01995050600181019050610740565b50829750879550505050505092915050565b600061079582610a3d565b61079f8185610a71565b93506107af818560208601610b34565b6107b881610c57565b840191505092915050565b60006107ce82610a3d565b6107d88185610a82565b93506107e8818560208601610b34565b6107f181610c57565b840191505092915050565b6000610809603483610a82565b915061081482610c68565b604082019050919050565b600061082c602783610a82565b915061083782610cb7565b604082019050919050565b600061084f600083610a66565b915061085a82610d06565b600082019050919050565b600060608301600083015161087d60008601826106f7565b5060208301518482036020860152610895828261078a565b91505060408301516108aa60408601826108b5565b508091505092915050565b6108be81610b1b565b82525050565b6108cd81610b1b565b82525050565b60006108de82610842565b9150819050919050565b600060208201905081810360008301526109028184610715565b905092915050565b6000602082019050818103600083015261092481846107c3565b905092915050565b6000604082019050818103600083015261094681856107c3565b90506109556020830184610706565b9392505050565b60006020820190508181036000830152610975816107fc565b9050919050565b600060208201905081810360008301526109958161081f565b9050919050565b60006040820190506109b160008301856108c4565b81810360208301526109c381846107c3565b90509392505050565b60006109d66109e7565b90506109e28282610b99565b919050565b6000604051905090565b600067ffffffffffffffff821115610a0c57610a0b610c28565b5b610a1582610c57565b9050602081019050919050565b6000819050602082019050919050565b600081519050919050565b600081519050919050565b6000602082019050919050565b600082825260208201905092915050565b600081905092915050565b600082825260208201905092915050565b600082825260208201905092915050565b6000610a9e82610b1b565b9150610aa983610b1b565b9250827fffffffffffffffffffffffffffffffffffffffffffffffffffffffffffffffff03821115610ade57610add610bca565b5b828201905092915050565b6000610af482610afb565b9050919050565b600073ffffffffffffffffffffffffffffffffffffffff82169050919050565b6000819050919050565b82818337600083830152505050565b60005b83811015610b52578082015181840152602081019050610b37565b83811115610b61576000848401525b50505050565b60006002820490506001821680610b7f57607f821691505b60208210811415610b9357610b92610bf9565b5b50919050565b610ba282610c57565b810181811067ffffffffffffffff82111715610bc157610bc0610c28565b5b80604052505050565b7f4e487b7100000000000000000000000000000000000000000000000000000000600052601160045260246000fd5b7f4e487b7100000000000000000000000000000000000000000000000000000000600052602260045260246000fd5b7f4e487b7100000000000000000000000000000000000000000000000000000000600052604160045260246000fd5b6000601f19601f8301169050919050565b7f547279696e6720746f207769746864726177206d6f7265206d6f6e657920746860008201527f616e2074686520636f6e7472616374206861732e000000000000000000000000602082015250565b7f4661696c656420746f207769746864726177206d6f6e65792066726f6d20636f60008201527f6e74726163742e00000000000000000000000000000000000000000000000000602082015250565b5056fea264697066735822122025830d9be6eea4932db84d977b47cdb955759da634e46fa4f054e254487c3e4a64736f6c63430008040033",
    "linkReferences": {},
    "deployedLinkReferences": {}
}