{
    "_format": "hh-sol-artifact-1",
    "contractName": "WavePortal",
    "sourceName": "contracts/WavePortal.sol",
    "abi": [
        {
            "inputs": [],
            "stateMutability": "nonpayable",
            "type": "constructor"
        },
        {
            "anonymous": false,
            "inputs": [
                {
                    "indexed": true,
                    "internalType": "address",
                    "name": "from",
                    "type": "address"
                },
                {
                    "indexed": false,
                    "internalType": "uint256",
                    "name": "timestamp",
                    "type": "uint256"
                },
                {
                    "indexed": false,
                    "internalType": "string",
                    "name": "message",
                    "type": "string"
                }
            ],
            "name": "NewWave",
            "type": "event"
        },
        {
            "inputs": [],
            "name": "getAllWaves",
            "outputs": [
                {
                    "components": [
                        {
                            "internalType": "address",
                            "name": "waver",
                            "type": "address"
                        },
                        {
                            "internalType": "string",
                            "name": "message",
                            "type": "string"
                        },
                        {
                            "internalType": "uint256",
                            "name": "timestamp",
                            "type": "uint256"
                        }
                    ],
                    "internalType": "struct WavePortal.Wave[]",
                    "name": "",
                    "type": "tuple[]"
                }
            ],
            "stateMutability": "view",
            "type": "function"
        },
        {
            "inputs": [
                {
                    "internalType": "string",
                    "name": "_message",
                    "type": "string"
                }
            ],
            "name": "wave",
            "outputs": [],
            "stateMutability": "nonpayable",
            "type": "function"
        }
    ],
    "bytecode": "0x608060405234801561001057600080fd5b506100596040518060400160405280600381526020017f737570000000000000000000000000000000000000000000000000000000000081525061005e60201b61033d1760201c565b6101e1565b6100fa81604051602401610072919061015f565b6040516020818303038152906040527f41304fac000000000000000000000000000000000000000000000000000000007bffffffffffffffffffffffffffffffffffffffffffffffffffffffff19166020820180517bffffffffffffffffffffffffffffffffffffffffffffffffffffffff83818316178352505050506100fd60201b60201c565b50565b60008151905060006a636f6e736f6c652e6c6f679050602083016000808483855afa5050505050565b600061013182610181565b61013b818561018c565b935061014b81856020860161019d565b610154816101d0565b840191505092915050565b600060208201905081810360008301526101798184610126565b905092915050565b600081519050919050565b600082825260208201905092915050565b60005b838110156101bb5780820151818401526020810190506101a0565b838111156101ca576000848401525b50505050565b6000601f19601f8301169050919050565b610ad9806101f06000396000f3fe608060405234801561001057600080fd5b50600436106100365760003560e01c8063449d46c01461003b578063bd43a90814610057575b600080fd5b610055600480360381019061005091906105a6565b610075565b005b61005f6101ec565b60405161006c919061076e565b60405180910390f35b600160008082825461008791906108ce565b925050819055506100cd6040518060400160405280600d81526020017f2573206861732077617665642100000000000000000000000000000000000000815250336103d6565b600160405180606001604052803373ffffffffffffffffffffffffffffffffffffffff16815260200183815260200142815250908060018154018082558091505060019003906000526020600020906003020160009091909190915060008201518160000160006101000a81548173ffffffffffffffffffffffffffffffffffffffff021916908373ffffffffffffffffffffffffffffffffffffffff160217905550602082015181600101908051906020019061018c92919061049b565b506040820151816002015550503373ffffffffffffffffffffffffffffffffffffffff167f5f7e16dc676677766a70e9c5628aa6c54ddb8b6e5188e2ae1e1f17f1ffbea71642836040516101e19291906107e2565b60405180910390a250565b60606001805480602002602001604051908101604052809291908181526020016000905b8282101561033457838290600052602060002090600302016040518060600160405290816000820160009054906101000a900473ffffffffffffffffffffffffffffffffffffffff1673ffffffffffffffffffffffffffffffffffffffff1673ffffffffffffffffffffffffffffffffffffffff168152602001600182018054610299906109a2565b80601f01602080910402602001604051908101604052809291908181526020018280546102c5906109a2565b80156103125780601f106102e757610100808354040283529160200191610312565b820191906000526020600020905b8154815290600101906020018083116102f557829003601f168201915b5050505050815260200160028201548152505081526020019060010190610210565b50505050905090565b6103d3816040516024016103519190610790565b6040516020818303038152906040527f41304fac000000000000000000000000000000000000000000000000000000007bffffffffffffffffffffffffffffffffffffffffffffffffffffffff19166020820180517bffffffffffffffffffffffffffffffffffffffffffffffffffffffff8381831617835250505050610472565b50565b61046e82826040516024016103ec9291906107b2565b6040516020818303038152906040527f319af333000000000000000000000000000000000000000000000000000000007bffffffffffffffffffffffffffffffffffffffffffffffffffffffff19166020820180517bffffffffffffffffffffffffffffffffffffffffffffffffffffffff8381831617835250505050610472565b5050565b60008151905060006a636f6e736f6c652e6c6f679050602083016000808483855afa5050505050565b8280546104a7906109a2565b90600052602060002090601f0160209004810192826104c95760008555610510565b82601f106104e257805160ff1916838001178555610510565b82800160010185558215610510579182015b8281111561050f5782518255916020019190600101906104f4565b5b50905061051d9190610521565b5090565b5b8082111561053a576000816000905550600101610522565b5090565b600061055161054c84610837565b610812565b90508281526020810184848401111561056957600080fd5b610574848285610960565b509392505050565b600082601f83011261058d57600080fd5b813561059d84826020860161053e565b91505092915050565b6000602082840312156105b857600080fd5b600082013567ffffffffffffffff8111156105d257600080fd5b6105de8482850161057c565b91505092915050565b60006105f38383610700565b905092915050565b61060481610924565b82525050565b61061381610924565b82525050565b600061062482610878565b61062e818561089b565b93508360208202850161064085610868565b8060005b8581101561067c578484038952815161065d85826105e7565b94506106688361088e565b925060208a01995050600181019050610644565b50829750879550505050505092915050565b600061069982610883565b6106a381856108ac565b93506106b381856020860161096f565b6106bc81610a92565b840191505092915050565b60006106d282610883565b6106dc81856108bd565b93506106ec81856020860161096f565b6106f581610a92565b840191505092915050565b600060608301600083015161071860008601826105fb565b5060208301518482036020860152610730828261068e565b91505060408301516107456040860182610750565b508091505092915050565b61075981610956565b82525050565b61076881610956565b82525050565b600060208201905081810360008301526107888184610619565b905092915050565b600060208201905081810360008301526107aa81846106c7565b905092915050565b600060408201905081810360008301526107cc81856106c7565b90506107db602083018461060a565b9392505050565b60006040820190506107f7600083018561075f565b818103602083015261080981846106c7565b90509392505050565b600061081c61082d565b905061082882826109d4565b919050565b6000604051905090565b600067ffffffffffffffff82111561085257610851610a63565b5b61085b82610a92565b9050602081019050919050565b6000819050602082019050919050565b600081519050919050565b600081519050919050565b6000602082019050919050565b600082825260208201905092915050565b600082825260208201905092915050565b600082825260208201905092915050565b60006108d982610956565b91506108e483610956565b9250827fffffffffffffffffffffffffffffffffffffffffffffffffffffffffffffffff0382111561091957610918610a05565b5b828201905092915050565b600061092f82610936565b9050919050565b600073ffffffffffffffffffffffffffffffffffffffff82169050919050565b6000819050919050565b82818337600083830152505050565b60005b8381101561098d578082015181840152602081019050610972565b8381111561099c576000848401525b50505050565b600060028204905060018216806109ba57607f821691505b602082108114156109ce576109cd610a34565b5b50919050565b6109dd82610a92565b810181811067ffffffffffffffff821117156109fc576109fb610a63565b5b80604052505050565b7f4e487b7100000000000000000000000000000000000000000000000000000000600052601160045260246000fd5b7f4e487b7100000000000000000000000000000000000000000000000000000000600052602260045260246000fd5b7f4e487b7100000000000000000000000000000000000000000000000000000000600052604160045260246000fd5b6000601f19601f830116905091905056fea26469706673582212203fac094bb5e396b6b9ef6955ce42628a1da4975edcac31238a600c2140ce646464736f6c63430008040033",
    "linkReferences": {},
    "deployedLinkReferences": {}
}